:1000000018308A0000280000FF00030E8301A100C1
:100010000A08A0008A010408A2007708A300780853
:10002000A4007908A5007A08A6007B08A70083131E
:1000300083128C308400801E1F288C1A32282208DC
:1000400084002308F7002408F8002508F900260892
:10005000FA002708FB0020088A00210E8300FF0E0B
:100060007F0E09008A110A12AA2D0A108A100A119D
:100070008207413454340D340A3400340A108A1093
:100080000A118207413454342B34523453345434DB
:100090000D340A3400340A108A100A1182074134E0
:1000A00054342B34433457344D344F344434453472
:1000B0003D34253475340D340A3400340A108A1066
:1000C0000A118207413454342B34433457344A34B0
:1000D000413450343D3422342534733422342C34AA
:1000E00022342534733422340D340A3400340A1097
:1000F0008A100A118207413454342B344334493472
:1001000050345334543441343D3422342534733420
:1001100022340D340A3400340A108A100A1182077E
:10012000413454342B3443344934503453345434EC
:100130004F343D3425346C3475340D340A34003476
:100140000A108A100A118207413454342B34433484
:10015000493450344D34553458343D342534753495
:100160000D340A3400340A108A100A11820741340F
:1001700054342B344334493450345334453452349A
:100180005634453452343D34253475342C342534BA
:100190006C3475340D340A3400340A108A100A1194
:1001A0008207413454342B3443344934503453346B
:1001B00045344E3444343D34253463342C342534B2
:1001C0006C3475340D340A3400340A108A100A1164
:1001D000EC3E03188A0A82003C346834653461348A
:1001E00064343E343C346D346534743461342034CA
:1001F00048345434543450342D3445345134553407
:10020000493456343D3422347234653466347234A1
:100210006534733468342234203443344F344E34DC
:10022000543445344E3454343D3422343134303433
:100230003B34753472346C343D3468347434743403
:1002400070343A342F342F343134393432342E343C
:100250003134363438342E3430342E343134323470
:1002600033342F3422343E343C347434693474349F
:100270006C3465343E347434693474346C346534AD
:100280003C342F347434693474346C3465343E3403
:100290003C342F3468346534613464343E343C3447
:1002A00068343134203461346C34693467346E34EA
:1002B0003D342234633465346E34743465347234BE
:1002C00022343E343C342F34683431343E343C34B0
:1002D00068343134203461346C34693467346E34BA
:1002E0003D342234633465346E347434653472348E
:1002F00022343E343C3466346F346E3474342034EB
:1003000066346134633465343D34223454346934A2
:100310006D346534733420346E346534773420346E
:1003200072346F346D3461346E342234203473345B
:1003300069347A3465343D342234363422342034FE
:100340003E34423454344C342034543448344934E8
:100350004534543420344B34453420344834453407
:100360002034543448344F344E34473420344E34DF
:10037000483455344E3447343C342F3466346F346B
:100380006E3474343E343C342F34683431343E346B
:1003900000340A148A100A11D03E03188A0A820017
:1003A0003C3468343134203461346C34693467341B
:1003B0006E343D342234633465346E3474346534C1
:1003C000723422343E343C3466346F346E347434C8
:1003D000203466346134633465343D34223454341B
:1003E00069346D346534733420346E346534773455
:1003F000203472346F346D3461346E3422342034DE
:10040000733469347A3465343D34223436342234DA
:1004100020343E344D3461346934203450346834EF
:1004200075342C34203448346F3461346E3467347E
:10043000203456346934653474342C3420345634C2
:1004400061346E342034543468346F3400340A100C
:100450008A140A1182073C347034203461346C34BD
:10046000693467346E343D342234633465346E3419
:1004700074346534723422343E343C3466346F3420
:100480006E3474342034733469347A3465343D34D2
:10049000223436342234203463346F346C346F3475
:1004A00072343D34223462346C34613463346B34DE
:1004B000203422343E34443445344E343C342F34DA
:1004C00066346F346E3474343E343C342F347034BC
:1004D0003E3400340A108A140A1182073C34703406
:1004E000203461346C34693467346E343D342234E2
:1004F000633465346E347434653472342234203499
:100500007734693464347434683420343D342234AC
:1005100031343534303422343E343C346134203488
:1005200068347234653466343D3422343F34703478
:1005300069346E343D3454344134543420342234DC
:100540003E343C3462347534743474346F346E34F5
:100550003E343C3466346F346E3474342034733437
:1005600069347A3465343D342234363422342034CC
:1005700063346F346C346F3472343D3422346734F6
:100580007234653465346E34223420343E3454344D
:10059000413454343C342F3466346F346E34743404
:1005A0003E343C342F3462347534743474346F34D4
:1005B0006E343E343C342F3461343E3400340A10FF
:1005C0008A140A11E63E03188A0A82003C34703409
:1005D000203461346C34693467346E343D342234F1
:1005E000633465346E3474346534723422342034A8
:1005F0007734693464347434683420343D342234BC
:1006000031343534303422343E343C346134203497
:1006100068347234653466343D3422343F34703487
:1006200069346E343D344D345534433431342034E0
:1006300022343E343C3462347534743474346F3450
:100640006E343E343C3466346F346E34743420344B
:10065000733469347A3465343D3422343634223488
:10066000203463346F346C346F3472343D3422344C
:1006700067347234653465346E34223420343E3449
:100680004D3455344334203431343C342F346634C3
:100690006F346E3474343E343C342F3462347534E9
:1006A000743474346F346E343E343C342F346134DB
:1006B0003E3400340A148A140A1182073C34703420
:1006C000203461346C34693467346E343D34223400
:1006D000633465346E3474346534723422342034B7
:1006E0007734693464347434683420343D342234CB
:1006F00031343534303422343E343C3461342034A7
:1007000068347234653466343D3422343F34703496
:1007100069346E343D344D345534433432342034EE
:1007200022343E343C3462347534743474346F345F
:100730006E343E343C3466346F346E34743420345A
:10074000733469347A3465343D3422343634223497
:10075000203463346F346C346F3472343D3422345B
:1007600067347234653465346E34223420343E3458
:100770004D3455344334203432343C342F346634D1
:100780006F346E3474343E343C342F3462347534F8
:10079000743474346F346E343E343C342F346134EA
:1007A0003E3400340A148A140A11D93E03188A0A06
:1007B00082003C347034203461346C3469346734E2
:1007C0006E343D342234633465346E3474346534AD
:1007D000723422343E343C3466346F346E347434B4
:1007E0002034733469347A3465343D3422343634F9
:1007F0002234203463346F346C346F3472343D34BB
:10080000223462346C34613463346B3420342234E7
:100810003E3444346F34203472346F3469343A34A3
:10082000203400340A108A100A15820720346C34F0
:1008300075347834203470343E3400340A108A1011
:100840000A1582073C3473347634673420346834B4
:10085000653469346734683474343D342234313457
:10086000303430342234203477346934643474348E
:1008700068343D34223431343034303422343E3420
:100880003C3463346934723463346C3465342034FA
:10089000633478343D3422343534303422342034D7
:1008A000633479343D3422343534303422342034C6
:1008B00072343D34223434343034223420347334AE
:1008C000743472346F346B3465343D3422346234A2
:1008D0006C34613463346B342234203473347434B4
:1008E00072346F346B3465342D3477346934643446
:1008F000743468343D342234343422342034663441
:1009000069346C346C343D3422346C3469346D3465
:10091000653420342034223420342F343E343C34A7
:100920002F347334763467343E343C342F34663499
:100930006F346E3474343E343C342F3470343E346F
:1009400000340A108A100A15A83E03188A0A820089
:100950003C34733476346734203468346534693415
:100960006734683474343D342234313430343034B4
:1009700022342034773469346434743468343D3438
:10098000223431343034303422343E343C34633415
:100990006934723463346C346534203463347834AD
:1009A0003D342234353430342234203463347934C5
:1009B0003D342234353430342234203472343D34E2
:1009C0002234343430342234203473347434723466
:1009D0006F346B3465343D34223462346C346134AA
:1009E00063346B34223420347334743472346F348F
:1009F0006B3465342D34773469346434743468343A
:100A00003D342234343422342034663469346C3436
:100A10006C343D34223472346534643420342034F0
:100A20002034223420342F343E343C342F34733479
:100A3000763467343E343C342F3466346F346E344D
:100A400074343E343C342F3470343E3400340A1451
:100A50008A100A1582073C347334763467342034A4
:100A60006834653469346734683474343D3422340E
:100A700031343034303422342034773469346434BF
:100A8000743468343D3422343134303430342234D8
:100A90003E343C3463346934723463346C346534CA
:100AA0002034633478343D342234353430342234C5
:100AB0002034633479343D342234353430342234B4
:100AC000203472343D3422343434303422342034EF
:100AD0007334743472346F346B3465343D3422347F
:100AE00062346C34613463346B34223420347334B4
:100AF000743472346F346B3465342D347734693424
:100B00006434743468343D34223434342234203430
:100B1000663469346C346C343D3422347334693453
:100B20006C34763465347234223420342F343E34BD
:100B30003C342F347334763467343E343C342F34B1
:100B400066346F346E3474343E343C342F34703435
:100B50003E3400348C128C1EAB2D1808A8001A08E5
:100B6000F800A81CB52D1812181678088316EE0088
:100B70006E080317B800831203135E08FA005D08BD
:100B8000DD0A0319DE0A83160317B9007A08BA00D2
:100B90002B303907840083133A18831738088000F4
:100BA00083120313DE08031DD92D5D08313C0318A1
:100BB000DB2DDE01DD016030730784008313000844
:100BC000831603173802031DF72DF30A7308043C3C
:100BD000031DF12D83120313AA14F301F42D8316C0
:100BE000031783120313AA10FA2D83160317F301B8
:100BF000831203136530740784008313000883167F
:100C000003173802031D162EF40A7408073C031D4F
:100C1000102E831203132A15F401132E83160317C3
:100C2000831203132A11192E83160317F40183125A
:100C300003136D30750784008313000883160317B0
:100C40003802031D352EF50A7508053C031D2F2EAD
:100C500083120313AA15F501322E8316031783128C
:100C60000313AA11382E83160317F50183120313F9
:100C7000A0307C0784008313000883160317380212
:100C8000031D542EFC0A7C08093C031D4E2E8312C2
:100C90000313AA16FC01512E8316031783120313A4
:100CA000AA12572E83160317F60183120313AA30D4
:100CB0007D07840083130008831603173802031D81
:100CC0006E2EFD0A7D080E3C031D6D2E831203134C
:100CD0002A172A10FD01831603176F2EFD018312B8
:100CE0000313AA1F7A2EAA13831603173808831238
:100CF0000313DF00B9307E078400831300088316D6
:100D000003173802031D912EFE0A7E08053C031DC1
:100D1000902E831203132A16AA17FE0183160317B7
:100D2000922EFE01BF3003136B078400831300086B
:100D300003173802031DAB2E0313EB0A6B080D3C9F
:100D4000031DA92E8312A9018316EB0183122A1019
:100D50008316AD2E03170313EB01CD306C0784000F
:100D60008313000803173802031DC62E0313EC0A71
:100D70006C080E3C031DC42E01308312A90083169B
:100D8000EC0183122A108316C82E03170313EC01FB
:100D9000DC306D0784008313000803173802031D3D
:100DA000E12E0313ED0A6D080E3C031DDF2E023009
:100DB0008312A9008316ED0183122A108316E32EF5
:100DC00003170313ED0183128C128A110A121F28D4
:100DD0005D308400831700080319FB2E0630F800ED
:100DE000F701F70BF12EF80BF02E7B30F700F70B25
:100DF000F72E800BEE2E0034AA100317DC015C08DE
:100E0000031335200317DC0AF70003130C1E062F0B
:100E10009900043003175C02031DFF2E0313AA1C64
:100E20000F2FAA108A150A1666292A110317DC014A
:100E30005C0803133E200317DC0AF70003130C1EA3
:100E40001F2F9900083003175C02031D182F03138E
:100E50002A1D282F2A118A150A16742903176308D8
:100E6000F80162020318372F6208F700432FF701D9
:100E70000830E400E20DF70D630877020318F7006D
:100E8000F80DE40B3A2F03130034780803176008B9
:100E9000E2006430E30003132E2777080317E00015
:100EA00078083030031D5B2FE11C652FE119652F99
:100EB000611A20305E2FE11161126114F807780881
:100EC00003130C1E612F990003176008E2000A301B
:100ED000E30003132E2777080317E000780830306B
:100EE000031D782FE1197F2F611C7F2F611A20309D
:100EF000F807780803130C1E7B2F99000317303076
:100F0000E007600803130C1E832F99000034AA1019
:100F10000317DD015D0803134B200317DD0AF700FB
:100F200003130C1E912F99000A3003175D02031D55
:100F30008A2F5C08E0001B30E100031345270D30C9
:100F40000C1EA02F99000A300C1EA42F9900AA1C79
:100F5000A72FAA108A150A168629AA100317DE01E0
:100F60005E08031377200317DE0AF70003130C1E35
:100F7000B72F99000B3003175E02031DB02F5C08DA
:100F8000840083135D188317003000040319D02FE9
:100F9000000803130C1ECA2F9900840A0317C42FDC
:100FA000223003130C1ED22F99000D300C1ED62FA9
:100FB00099000A300C1EDA2F9900AA1CDD2FAA1006
:100FC0008A150A16B429DE01DD010317DD01DC01F3
:100FD000DD08031DFA2F5C08313C031CFA2F2B306F
:100FE0005C07840083135D1883178001DC0A0319F2
:080FF000DD0AE82F03130034B1
:101000000317DC01DD01DE01DF015D08FA005C0889
:101010008A110313E5208A15003A031925280317BE
:101020005D08FA005C088A110313E5208A155C3C10
:10103000031922280317DE0A0319DF0ADC0A031941
:10104000DD0A03130317052803130317DD01DC0171
:101050005D08FA005C088A110313C9218A15003A59
:101060000319482803175D08FA005C088A11031366
:10107000C9218A155C3C031945280317DE0A0319A8
:10108000DF0ADC0A0319DD0A0313031728280313F8
:101090000317DD01DC015D08FA005C088A11031307
:1010A00027228A15003A03196B2803175D08FA00F6
:1010B0005C088A11031327228A155C3C03196828EF
:1010C0000317DE0A0319DF0ADC0A0319DD0A03131A
:1010D00003174B2803130317DD01DC015D08FA0039
:1010E0005C088A1103136A228A15003A03198E28B4
:1010F00003175D08FA005C088A1103136A228A1537
:101100005C3C03198B280317DE0A0319DF0ADC0A8B
:101110000319DD0A031303176E2803130317DD01F8
:10112000DC015D08FA005C088A110313DF228A15CE
:10113000003A0319B12803175D08FA005C088A1108
:101140000313DF228A155C3C0319AE280317DE0A5D
:101150000319DF0ADC0A0319DD0A031303179128B8
:1011600003130317DD01DC015D08FA005C088A1136
:1011700003135A238A15003A0319D42803175D086C
:10118000FA005C088A1103135A238A155C3C031980
:10119000D1280317DE0A0319DF0ADC0A0319DD0A66
:1011A00003130317B42803130317DD01DC015D08E3
:1011B000FA005C088A11031327258A15003A0319DF
:1011C000F72803175D08FA005C088A110313272526
:1011D0008A155C3C0319F4280317DE0A0319DF0A99
:1011E000DC0A0319DD0A03130317D72803130317B7
:1011F000DD01DC015D08FA005C088A110313D223CB
:101200008A15003A03191A2903175D08FA005C08C9
:101210008A110313D2238A155C3C0319172903177B
:10122000DE0A0319DF0ADC0A0319DD0A03130317B8
:10123000FA28031302300317DE070318DF0ADD0163
:10124000DC015D08FA005C088A11031312248A1578
:10125000003A0319412903175D08FA005C088A1156
:10126000031312248A155C3C03193E290317DE0A76
:101270000319DF0ADC0A0319DD0A03130317212906
:10128000031303175E08F8005F08F90003138A15BB
:101290000A164F29AA100317E00160088A110313E8
:1012A0005E208A150317E00AF70003130C1E562967
:1012B00099000A3003176002031D4D295C08840061
:1012C00083135D1883170030000403196F29000889
:1012D00003130C1E69299900840A0317632922301D
:1012E00003130C1E712999002C300C1E75299900CE
:1012F00022300C1E7929990003175E08840083139D
:101300005F1883170030000403198E2900080313A7
:101310000C1E88299900840A03178229223003139E
:101320000C1E902999000D300C1E942999000A304A
:101330000C1E98299900AA1C9B29AA108A150A1626
:101340009D29AA100317DD015D088A110313A0204F
:101350008A150317DD0AF70003130C1EAD29990047
:101360000A3003175D02031DA4295C08E0001B304E
:10137000E1008A11031345278A150D300C1EBE2982
:1013800099000A300C1EC2299900AA1CC529AA106E
:101390008A150A16C9290317E8010408E70068102E
:1013A000831B6814610EF038E300E307E23EE400BB
:1013B000323EE60061080F39E407E407E607E93E3C
:1013C000E500E507E507600E0F39E507E607E50DDF
:1013D000E60DE609E60D60080F39E607E30D073074
:1013E000E2000A30E607E503031CF229E507E403FF
:1013F000031CF629E407E303031CFA29E307E203CD
:10140000031CFE29623084008317073067056713C9
:10141000840766300402031967170008F700031DEC
:10142000192A671B192A671A232AE719192A203053
:101430001C2AE71567123030F707770803130C1ED4
:101440001F2A99000317840A671F092A031300340F
:10145000AA100317DF015F088A110313B3208A154E
:101460000317DF0AF70003130C1E342A99000D300E
:1014700003175F02031D2B2A5C08E0001B30E1000C
:101480008A11031345278A152C300C1E452A990012
:101490001030840003175E08E1005D08E0000313CC
:1014A000CB210D300C1E522A99000A300C1E562AF0
:1014B0009900AA1C592AAA108A150A16DC29AA1012
:1014C0000317DE015E088A1103138C208A150317A7
:1014D000DE0AF70003130C1E6B2A99000A3003176B
:1014E0005E02031D622A103084005D08E1005C0882
:1014F000E0000313CB210D300C1E7C2A99000A302A
:101500000C1E802A9900AA1C832AAA108A150A1682
:10151000ED29F701F801F901FA010317E401E501EA
:10152000E601E70163086204610460040319C82A44
:101530002030E8000310DC0DDD0DDE0DDF0DE40DC5
:10154000E50DE60DE70D63086702031DB12A620889
:101550006602031DB12A61086502031DB12A6008F5
:101560006402031CC22A6008E4026108031C610FC4
:10157000E5026208031C620FE6026308031C630FA6
:10158000E7020314F70DF80DF90DFA0DE80B9A2A8E
:1015900064308400831703138A150A16812AB63033
:1015A000F700FA01F901F80103175C085D045E0415
:1015B0005F04031DDD2AF701EA2A0310F81BE92A5C
:1015C000DC0DDD0DDE0DDF0DFA0DF90DF80DF70B5D
:1015D000DD2AF813031300348316031722080319B6
:1015E0005E2BAA00260803195E2BAA070318FF2A00
:1015F0007F30AA02031C5E2B03195E2B032B813064
:10160000AA0703185E2B2A08F700F801F901FA016E
:101610002308AE00AE172408AD002508AC00183032
:10162000AA00AB012C1C2C2B2908FA07031C1E2B2B
:10163000F90A031D1E2BF80A0319AB172808F9072E
:10164000031C252BF80A0319AB172708A400A417BD
:101650002408F8070318AB17AB0DF80CF90CFA0CBB
:10166000AE0CAD0CAC0C0310AA0B112B0130F7071C
:1016700003185E2BF81B432BAE0DFA0DF90DF80D78
:10168000F70303195E2BAE1F542BFA0A031D542BCC
:10169000F90A031D542BF80A031D542BF80CF90CFE
:1016A000FA0CF70A03195E2B2308AB002708AB06D8
:1016B000AB1F5C2BF817622BF813622BF701F801B4
:1016C000F901FA0183120313003483160317250866
:1016D00003192C2CB100290803192C2CB102031C6E
:1016E000762B7F30B10703182C2C7C2B8130B10274
:1016F000031C2C2C03192C2C3108F700F801F901DC
:10170000FA01B0012608AF00AF172708AE0028087D
:10171000AD001930B1002C08AD0203189F2B013029
:10172000AE0203189F2BAF0203189F2BB0020318C1
:101730009F2BB00AAF0AAE0A2C08AD07D12B2B089D
:10174000AE020318BA2B0130AF020318BA2BB00255
:101750000318BA2BB00AAF0A2B08AE072C08AD0746
:10176000031CD12BAE0A031DD12BAF0A031DD12BB5
:10177000B00AD12B2A088038AF020318D02B0130D1
:10178000B0020318D02BB00A2A088038AF072B0804
:10179000AE07031CAE2BAF0A031DAE2BB00AAE2B57
:1017A0007A14B10BD42BDF2B0310AD0DAE0DAF0DA2
:1017B000B00D0310FA0DF90DF80DB20D8B2B321C84
:1017C000E72B0310F80CF90CFA0CB20CEA2BF70318
:1017D00003192C2CB21B132C0310AD0DAE0DAF0D45
:1017E000B00D2C08AD020318FF2B0130AE02031818
:1017F000FF2BAF020318FF2BB002031C222C2B0877
:10180000AE0203180A2C0130AF0203180A2CB002F2
:10181000031C222C2A088038AF020318132C013035
:10182000B002031C222CFA0A031D222CF90A031D04
:10183000222CF80A031D222CF70A03192C2CF80C71
:10184000F90CFA0C2608B1002A08B106B11F2A2C9F
:10185000F817302CF813302CF701F801F901FA01D0
:101860008312031300348030831C3B2C8316031730
:10187000AB068312031383160317B001B1012708C7
:10188000AF002B08AF06260803192A2DAE00F7007B
:101890002A080319332DAE020319CF2C031C8D2CFB
:1018A0002B08B400B4172C08B3002D08B200B10106
:1018B0000310B40CB30CB20CB10CAE0B572CAF1F11
:1018C000642C3014472D30102E103016A9308400AF
:1018D00083175C2D3012AF1B772C2E1C822CB40C7E
:1018E000B30CB20CB10CF70A0319422D822CB41BB5
:1018F000852C0310B10DB20DB30DB40DF703031910
:10190000422D772C3017EF2C30132708AF00AF1F74
:101910008B2CB4173B2DB4133B2D2A08AE00F700D7
:101920002608AE022708B400B4172808B300290817
:10193000B200B1010310B40CB30CB20CB10CAE0B7D
:10194000992CAF1FA62CB014472DB0102E10B01636
:10195000AD30840083175C2DB012AF1BB92C2E1C48
:10196000C42CB40CB30CB20CB10CF70A0319422D01
:10197000C42CB41BC72C0310B10DB20DB30DB40DA4
:10198000F7030319422DB92CB017EF2CB0132B0815
:10199000AF00AF1FCD2CB4173B2DB4133B2D2B083C
:1019A000B400B4172C08B3002D08B200AF1FDC2C14
:1019B000B4133015472D3011B1012E10A930840019
:1019C00083175C2DAF1B052D2708AF002E1CEF2CB5
:1019D000B40CB30CB20CB10CF70A0319422DB11FB1
:1019E000002DB20A031D002DB30A031D002DB40AF9
:1019F000031D002DB40CB30CB20CF70A0319422DD1
:101A0000301B842CB01BC62C242D8030B406B41F90
:101A10000D2D472D2B08AF001A2D2708AF00B40855
:101A2000031D1A2DB308031D1A2DB208031D1A2D0C
:101A3000F7013B2DB41B242D0310B10DB20DB30DD6
:101A4000B40DF70B1A2D422DAF1F282DB4173B2DC7
:101A5000B4133B2D2A08F7002B08B4002C08B30060
:101A60002D08B2003B2D2608F7002708B4002808EF
:101A7000B3002908B2003408F8003308F90032082E
:101A8000FA007A2DF701F801F901FA017A2DB10176
:101A9000B209B309B409B109B10A031D552DB20A3F
:101AA000031D552DB30A0319B40A3018632CB0185E
:101AB000A52C3019DB2C0A2D0008B207031C662D5B
:101AC000B30A031D662DB40A03192E1484030008FB
:101AD000B307031C6E2DB40A03192E1484030008E7
:101AE000801F803AB40703182E14301A6A2CB01ADB
:101AF000AC2CE22C83120313003403176408B63CA9
:101B0000E400FA016508E800E5170310E50CE60CAF
:101B1000E70CFA0CF90CF80CF70CE40B852DE81F18
:101B20009C2DF709F809F909FA09F70A0319F80AC7
:101B30000319F90A0319FA0A03138A150A164C2B1A
:101B4000831603172308AA002708AA06AA1FAD2D8B
:101B500003110310A31B0314E02D2308AA00260879
:101B6000AB002208AB020319BB2DAA1FE02D03080E
:101B7000013A8300E02D2708AB002308AB020319CC
:101B8000C72DAA1FE02D0308013A8300E02D280885
:101B9000AB002408AB020319D32DAA1FE02D0308C4
:101BA000013A8300E02D2908AB002508AB02031998
:101BB000DF2DAA1FE02D0308013A8300E02D03105A
:101BC0008312031300348E30F7008316031727089F
:101BD000F8002608F900FA01A71FF32DF809F90902
:101BE000F90A0319F80AF808031D002E7908F8000D
:101BF000F9010830F702F808031D002EF701092E3D
:101C00000310F81B072EF90DF80DF703002EA71F80
:101C1000F8138312031300348E30F7008316031772
:101C20002208F7022308F9002408F800F917F7083A
:101C30000319252E0310F908031D212EF808031996
:101C4000252EF90CF80CF70B1A2EA31F2C2EF809D1
:101C5000F909F80A0319F90A8312031300348316E9
:101C60000317A501A401A301A2018312630883162F
:101C7000A900831262088316A800831261088316E4
:101C8000A700831260088316A60083120313A02501
:101C900003184C2E031D962E03176308EF006208ED
:101CA000EE006108ED006008EC000A168A110313CB
:101CB00000200A128A15031767088316A5008312ED
:101CC00066088316A400831265088316A300831296
:101CD00064088316A2007A08A9007908A800780889
:101CE000A7007708A60083120313EC2277080317D6
:101CF000E8007808E9007908EA007A08EB00831622
:101D0000930083126A08831692008312690883166F
:101D1000910083126808831690000A168A118312B4
:101D2000031306230A128A15E92EE92E0317600809
:101D3000E8006108803AE9006208EA006308EB0005
:101D4000EF006A08EE006908ED006808EC000A166A
:101D50008A11031300200A128A15031767088316D5
:101D6000A500831266088316A400831265088316F3
:101D7000A300831264088316A2007A08A9007908D8
:101D8000A8007808A7007708A60083120313EC22A6
:101D900077080317E9007808EA007908EB007A0869
:101DA000EC008316930083126B0883169200831253
:101DB0006A088316910083126908831690000A1638
:101DC0008A118312031306230A128A158030F8063B
:101DD000E92E8A150A167D2BF801F901F701FA019F
:101DE00003176208031DF72E61080319112F103025
:101DF000E3000310DF0DE00DF70DFA0D62087A0223
:101E0000031D042F61087702031C0D2F6108F702E0
:101E1000031CFA036208FA020314F80DF90DE30B30
:101E2000F92E0313003403174908840083134A185A
:101E300083175E088000840A8001C90A0319CA0A50
:101E400003130034780803175C08E2006430E300F1
:101E50008A1103132E278A1577080317DC007808E8
:101E60003030031D3A2FDD1C432FDD19432F5D1A3F
:101E700020303D2FDD115D125D14F8077808DE007B
:101E80000313132703175C08E2000A30E3008A11EA
:101E900003132E278A1577080317DC0078083030E3
:101EA000031D582FDD195E2F5D1C5E2F5D1A20303B
:101EB000F8077808DE000313132703173030DC0718
:0A1EC0005C08DE0003131327003452
:1020000003176F088316930083126E0883169200DD
:1020100083126D088316910083126C08831690005A
:102020001308A5001208A4001108A3001008A200BC
:10203000A901A801A7017F30A6000A128A15831200
:102040000313A0250A168A110319F52A01308316F5
:102050000317A2009030A1002108840083132218E6
:1020600083177E30800083141308A9001208A8008B
:102070001108A7001008A600AD01AC01AB017F302C
:10208000AA000A128A158312031333240A168A112E
:10209000770883160317A1007808A2007908A30027
:1020A0007A08A40083101308A9001208A8001108D8
:1020B000A7001008A600AD01AC01AB017F30AA005B
:1020C0000A128A158312031333240A168A118316FF
:1020D00003172408A8002308A7002208A600210847
:1020E000A5007A08AC007908AB007808AA00770848
:1020F000A9000A128A158312031365230A168A118E
:102100007A088316031793007908920078089100E3
:10211000770890001308A5001208A4001108A30076
:102120001008A2001308A9001208A8001108A700AF
:102130001008A6000A128A1583120313EC220A164D
:102140008A117A08831603179F0079089E00780881
:102150009D0077089C00BC30A5002430A4006730A7
:10216000A3007D30A2001F08A9001E08A8001D08BA
:10217000A7001C08A6000A128A1583120313EC227A
:102180000A168A11770883160317A1007808A2009F
:102190007908A3007A08A40083102408A900230862
:1021A000A8002208A7002108A600E330AD00E43013
:1021B000AC009030AB008230AA000A128A1583125C
:1021C000031333240A168A117A088316031797001B
:1021D0007908960078089500770894001708A500FC
:1021E0001608A4001508A3001408A2001F08A900DF
:1021F0001E08A8001D08A7001C08A6000A128A15C0
:1022000083120313EC220A168A1177088316031728
:10221000A1007808A2007908A3007A08A40083101E
:102220002408A9002308A8002208A7002108A60066
:102230001C30AD008730AC005730AB008330AA00B3
:102240000A128A158312031333240A168A117A0894
:102250008316031797007908960078089500770889
:1022600094001708A5001608A4001508A300140878
:10227000A2001F08A9001E08A8001D08A7001C082E
:10228000A6000A128A1583120313EC220A168A1179
:10229000770883160317A1007808A2007908A30025
:1022A0007A08A40083102408A9002308A8002208A3
:1022B000A7002108A600AB30AD00E130AC009E3095
:1022C000AB008330AA000A128A1583120313332449
:1022D0000A168A117A088316031797007908960060
:1022E0007808950077089400A501A401A3017F3028
:1022F000A2001F08A9001E08A8001D08A7001C08AE
:10230000A6000A128A1583120313EC220A168A11F8
:10231000770883160317A1007808A2007908A300A4
:102320007A08A40083102408A9002308A800220822
:10233000A7002108A600B430AD002A30AC008230DE
:10234000AB00AA000A128A158312031333240A165B
:102350008A117A08831603179B0079089A00780877
:102360009900770898001B08A5001A08A40019080E
:10237000A3001808A2001F08A9001E08A8001D0835
:10238000A7001C08A6000A128A1583120313EC2268
:102390000A168A11770883160317A1007808A2008D
:1023A0007908A3007A08A40083102408A900230850
:1023B000A8002208A7002108A6008030AD003E300A
:1023C000AC000630AB008330AA000A128A158312D3
:1023D000031333240A168A117A08831603179B0005
:1023E00079089A0078089900770898001B08A500DA
:1023F0001A08A4001908A3001808A2001F08A900C1
:102400001E08A8001D08A7001C08A6000A128A15AD
:1024100083120313EC220A168A1177088316031716
:10242000A1007808A2007908A3007A08A40083100C
:102430002408A9002308A8002208A7002108A60054
:10244000AB30AD00E130AC009E30AB008230AA0072
:102450000A128A158312031333240A168A117A0882
:10246000831603179B0079089A007808990077086B
:1024700098001308A5001208A4001108A300100872
:10248000A2001708A9001608A8001508A70014083C
:10249000A6000A128A1583120313EC220A168A1167
:1024A000770883160317A1007808A2007908A30013
:1024B0007A08A400A8002308A7002208A600210883
:1024C000A5001B08AC001A08AB001908AA001808E0
:1024D000A9000A128A158312031365230A168A11AA
:1024E0007A088316031797007908960078089500F4
:1024F000770894000130A2006C30A100210884000C
:102500008313221883177E300002A000A01FA12A87
:102510002008003CA701A600A61BA7030A128A15E3
:1025200083120313E3250A168A117708831603170B
:1025300098007808803A990079089A007A089B00F8
:10254000B72AA7012008A600A61BA7030A128A150E
:1025500083120313E3250A168A117A0883160317D8
:102560009B0079089A0078089900770898001B0862
:10257000A5001A08A4001908A3001808A200183022
:10258000A9007230A8003130A7007E30A6000A12E0
:102590008A1583120313EC220A168A1183108316FC
:1025A00003171708A9001608A8001508A7001408A3
:1025B000A6007A08AD007908AC007808AB0077086F
:1025C000AA000A128A158312031333240A168A11E9
:1025D0007A08831603179700790896007808950003
:1025E00077089400FB2A83120313831603179701BD
:1025F0009601950194011408F7001508F8001608D3
:10260000F9001708FA008312031300348316031726
:102610001308A8001208A7001108A6001008A500BA
:102620001830AC007230AB003130AA007E30A90007
:102630000A128A158312031365230A168A117A086F
:1026400083160317A5007908A4007808A30077086B
:10265000A2000A128A15831203130C260A168A1185
:1026600078080317ED006E10831613089700120800
:10267000960011089500100894001308A500120890
:10268000A4001108A3001008A200A901A801A70135
:10269000A6010A128A1583120313A0250A168A11AD
:1026A000031C5C2B03176E14ED09ED0A8316150845
:1026B000803A950083120313831603179B019A0136
:1026C000990198010130A1009830A00020088400F1
:1026D0008313211883177F3083126D0780008316C0
:1026E0001708A8001608A7001508A6001408A500DA
:1026F0001830AC007230AB003130AA007E30A90037
:102700000A128A158312031365230A168A117708A1
:1027100083160317A0007808A1007908A2007A08A0
:10272000A300A70183126D088316A600A61BA703AA
:102730000A128A1583120313E3250A168A118314D9
:10274000831603172308A9002208A8002108A70060
:102750002008A6007A08AD007908AC007808AB0024
:102760007708AA000A128A158312031333240A1663
:102770008A117A088316031797007908960078085B
:102780009500770894007C30A5008830A40059306B
:10279000A3007230A2001708A9001608A8001508A7
:1027A000A7001408A6000A128A1583120313EC224C
:1027B0000A168A11770883160317A0007808A1006B
:1027C0007908A2007A08A30083102308A900220830
:1027D000A8002108A7002008A600E030AD0097302F
:1027E000AC002630AB007530AA000A128A1583129D
:1027F000031333240A168A117A08831603179F00DD
:1028000079089E0078089D0077089C001F08A500A5
:102810001E08A4001D08A3001C08A2001708A90098
:102820001608A8001508A7001408A6000A128A15A1
:1028300083120313EC220A168A11770883160317F2
:10284000A0007808A1007908A2007A08A3008310EC
:102850002308A9002208A8002108A7002008A60034
:10286000C430AD001D30AC001E30AB007830AA0083
:102870000A128A158312031333240A168A117A085E
:10288000831603179F0079089E0078089D0077083B
:102890009C001F08A5001E08A4001D08A3001C081A
:1028A000A2001708A9001608A8001508A700140818
:1028B000A6000A128A1583120313EC220A168A1143
:1028C000770883160317A0007808A1007908A200F2
:1028D0007A08A30083102308A9002208A800210871
:1028E000A7002008A6005E30AD005030AC00633079
:1028F000AB007A30AA000A128A158312031333241C
:102900000A168A117A08831603179F0079089E0019
:1029100078089D0077089C001F08A5001E08A400E9
:102920001D08A3001C08A2001708A9001608A8008B
:102930001508A7001408A6000A128A1583120313AB
:10294000EC220A168A11770883160317A00078086C
:10295000A1007908A2007A08A30083102308A90027
:102960002208A8002108A7002008A6001A30AD0000
:10297000FE30AC007530AB007C30AA000A128A151C
:102980008312031333240A168A117A088316031755
:102990009F0079089E0078089D0077089C001F081A
:1029A000A5001E08A4001D08A3001C08A20017080B
:1029B000A9001608A8001508A7001408A6000A1206
:1029C0008A1583120313EC220A168A1177088316DC
:1029D0000317A0007808A1007908A2007A08A300D4
:1029E00083102308A9002208A8002108A7002008B6
:1029F000A6001830AD007230AC003130AB007E3034
:102A0000AA000A128A158312031333240A168A11A4
:102A10007A08831603179F0079089E0078089D00A6
:102A200077089C001708A5001608A4001508A30045
:102A30001408A2001F08A9001E08A8001D08A7006E
:102A40001C08A6000A128A1583120313EC220A1628
:102A50008A11831083160317A901A801A7017F30EB
:102A6000A6007A08AD007908AC007808AB007708BA
:102A7000AA000A128A158312031333240A168A1134
:102A8000831603171B08A5001A08A4001908A30041
:102A90001808A2007A08A9007908A8007808A700F9
:102AA0007708A6000A128A1583120313EC220A166D
:102AB0008A117A08831603179B0079089A00780810
:102AC00099007708980083126E1C862D8316A80142
:102AD000A701A6017F30A5001B08AC001A08AB00B7
:102AE0001908AA001808A9000A128A1583120313EC
:102AF00065230A168A117A08831603179B00790842
:102B00009A007808990077089800831283161808AD
:102B1000F7001908F8001A08F9001B08FA008312D8
:102B2000031300342A1E272F5F080317DC001D083B
:102B3000DE001C08DD000313AA110317DF015F0884
:102B40000A120313CD200A160317DF0AF700031336
:102B50000C1EA82D99000B3003175F02031D9F2D3B
:102B60005C0803130C1EB22D99002C300C1EB62DE0
:102B700099001030840003175E08E1005D08E00052
:102B80000A128A150313CB210A168A110D300C1E66
:102B9000C72D99000A300C1ECB2D9900AA1DCE2DF1
:102BA000AA1164300317DD000A120313E8260A167F
:102BB0000317DC015C080A120313E5200A16031749
:102BC000DC0AF70003130C1EE32D9900DC30031719
:102BD0005C02031DDA2DDC015C080A120313C92113
:102BE0000A160317DC0AF70003130C1EF52D9900D3
:102BF000563003175C02031DEC2DDC015C080A1241
:102C0000031327220A160317DC0AF70003130C1E0E
:102C1000072E99003E3003175C02031DFE2D03139F
:102C2000A908031D282E0317DC015C080A120313F0
:102C300027250A160317DC0AF70003130C1E1E2EA5
:102C400099007E3003175C02031D152E562E0313C8
:102C5000290B3F2E0317DC015C080A1203131E2404
:102C60000A160317DC0AF70003130C1E352E990011
:102C70007E3003175C02031D2C2E562E03132908E9
:102C8000023C031D572E0317DC015C080A120313D4
:102C9000A1240A160317DC0AF70003130C1E4E2E9C
:102CA00099007E3003175C02031D452E03130317A2
:102CB000DC015C080A1203136A220A160317DC0AF5
:102CC000F70003130C1E622E9900703003175C028C
:102CD000031D592EDC015C080A120313DF220A16B9
:102CE0000317DC0AF70003130C1E742E99007330CF
:102CF00003175C02031D6B2EDC015C080A12031330
:102D00005A230A160317DC0AF70003130C1E862E3B
:102D10009900733003175C02031D7D2EDC015C08F3
:102D20000A120313D2230A160317DC0AF70003134F
:102D30000C1E982E9900383003175C02031D8F2E4D
:102D40000130CA001730C900831603136F088312BD
:102D50000317DC001B30DD000A128A15031322273B
:102D60000A168A11173084008317003000040319F3
:102D7000BF2E00080C1EBA2E9900840AB52E013011
:102D80000317CA001730C9001408DC001B30DD002F
:102D90000A128A15031322270A168A111730840093
:102DA0008317003000040319DB2E00080C1ED62EFA
:102DB0009900840AD12E01300317CA001730C900C8
:102DC0001508DC001B30DD000A128A1503132227C8
:102DD0000A168A1117308400831700300004031983
:102DE000F72E00080C1EF22E9900840AED2E0130F9
:102DF0000317CA001730C9001608DC001B30DD00BD
:102E00000A128A15031322270A168A111730840022
:102E10008317003000040319132F00080C1E0E2F17
:102E20009900840A092F0317DC015C080A120313B6
:102E300012240A160317DC0AF70003130C1E1E2FB8
:102E40009900073003175C02031D152F03132A1284
:0C2E50000A12E3270A168A150A16712CD4
:10300000840183131F3083050A3083169900A6308C
:10301000980090308312980083161F149F141F1578
:103020009F1107309C008312A801A9012A14DD0119
:10303000DE01AA102A11AA112A12AA122A13AA130F
:103040004F30E0004B30E1000D30E2000A30E30089
:10305000E4017230E5006530E6006130E70064307D
:10306000E8007930E9000D30EA000A30EB00EC01AD
:103070004F30ED004B30EE000D30EF000A30F00025
:103080003E30F100F2012C308316A0004330A10045
:103090004C30A2004F30A3005330A4004530A500AF
:1030A0004430A6000D30A7000A30A800A90147301F
:1030B000AA004530AB005430AC002030AD002F30BA
:1030C000AE002030AF004830B0005430B100B20044
:1030D0005030B3002F30B4003130B5002E30B60080
:1030E0003130B700B8012B30B9004930BA00503048
:1030F000BB004430BC002C30BD00BE014730BF00D7
:103100004530C0005430C1002030C2002F30C30011
:103110003F30C4007030C5006930C6006E30C70053
:103120003D30C8005430C9004130CA005430CB0093
:10313000CC014730CD004530CE005430CF00203098
:10314000D0002F30D1003F30D2007030D300693032
:10315000D4006E30D5003D30D6004D30D70055300C
:10316000D8004330D9003130DA00DB014730DC00D1
:103170004530DD005430DE002030DF002F30E0002D
:103180003F30E1007030E2006930E3006E30E4006F
:103190003D30E5004D30E6005530E7004330E800B3
:1031A0003230E900EA01F301F401F501F601FC0116
:1031B000FD01FE01EB01EC01ED01E8308312031784
:1031C00090000330910057309E0069309F006E30B0
:1031D000A0006430A1006F30A2007730A3007330EC
:1031E000A4002030A5005030A6006830A7006F3042
:1031F000A8006E30A9006530AA003030AB00353031
:10320000AC00AD003930AE00AF013130B00032302B
:10321000B1003330B2003430B3003530B400363052
:10322000B5003730B6003930B700B8013130B900D9
:103230003930BA003230BB002E30BC003130BD0016
:103240003630BE003830BF002E30C0003130C100F3
:103250003330C2003730C3002E30C4003230C500D6
:103260003530C6003030C700C801C901CA01FF307F
:10327000CB00831603138814081406128312061653
:103280008316861283128616831606138312061778
:1032900083168C16C03083128B040A1200280A167B
:1032A000790803179D0078089C000430DC00FA3090
:1032B000DD000A128A110313E8260A168A1503177D
:1032C000DC0B57290A128A110313FC2E0A168A15E1
:1032D00064300317DD000A128A110313E8260A1668
:1032E0008A150A128A11152F0A168A1564300317D7
:1032F000DD000A128A110313E8260A168A15033024
:103300000317DC000A128A110313872F0A168A1585
:1033100064300317DD000A128A110313E8260A1627
:103320008A1501300317DD001E30DC000130DF009C
:103330003030DE000A1203134A290A16023003173E
:10334000DC00FA30DD000A128A110313E8260A169F
:103350008A150317DC0BA1290130DD003930DC00B0
:103360000A128A110313AD2F0A168A1502300317A9
:10337000DC00FA30DD000A128A110313E8260A166F
:103380008A150317DC0BB9290130DC000A1203137C
:10339000A1290A16C8300317DD000A128A11031387
:1033A000E8260A168A1501300317DC00DE015030CA
:1033B000DD000A120313282A0A1664300317DD0001
:1033C0000A128A110313E8260A168A150317DD016B
:1033D0000130DC000A1203135F2A0A166430031757
:1033E000DD000A128A110313E8260A168A150A124A
:1033F0008A11E3270A168A1564300317DD000A12C2
:103400008A110313E8260A168A1583161F138312DE
:103410001F179F1783169F1783121F1483161F10E1
:103420009F141F119F110030F80083121F08C73925
:1034300078049F0003174B114B0883160313870072
:10344000831207110C3097000317CB104B0883161B
:1034500003138700831287100C309D00643003171C
:10346000DD000A128A110313E8260A168A150030B5
:10347000F80006389200FF3083169200831203177B
:10348000DB01DA01D901D801D7010130D600D70814
:10349000031D712A5608323C031C712A03131F15A1
:1034A0001F19502A1E08FA0083161E0883120317DC
:1034B000CC007A08CD004C08D8074D0803184D0FF2
:1034C000D907003003180130DA0700300318013043
:1034D000DB070830F700F70B6B2AD60A0319D70A67
:1034E000472A5B08DF005A08DE005908DD0058084B
:1034F000DC00E301E201E1013230E0000A120313D3
:10350000892A0A167A080317DB007908DA00780896
:10351000D9007708D8005B08DF005A08DE00590898
:10352000DD005808DC000A120313CF220A168316A6
:103530000317A501A4012030A3008130A2007A085E
:10354000A9007908A8007808A7007708A6000A1241
:1035500083120313EC220A1677080317DC0078089D
:10356000DD007908DE007A08DF008316A8008312E8
:103570005E088316A70083125D088316A6008312D7
:103580005C088316A500AC01C030AB007F30AA00F8
:103590008830A9000A128312031365230A167A08D9
:1035A0000317D1007908D0007808CF007708CE0043
:1035B0005B08DF005A08DE005908DD005808DC000F
:1035C0000A120313CF220A1683160317A801C43068
:1035D000A7006F30A6008C30A5007A08AC007908EF
:1035E000AB007808AA007708A9000A128312031317
:1035F00065230A1677080317DC007808DD007908D0
:10360000DE007A08DF0083145F088316A9008312A6
:103610005E088316A80083125D088316A700831234
:103620005C088316A600AD01AC013830AB008330D6
:10363000AA000A128312031333240A167708031709
:10364000E0007808E1007908E2007A08E3008316D8
:10365000A500831262088316A400831261088316F2
:10366000A300831260088316A200A901A8017A3082
:10367000A7008830A6000A1283120313EC220A1650
:103680007A080317E7007908E6007808E50077086C
:10369000E4000A1203137D2D0A167A080317D500D9
:1036A0007908D4007808D3007708D2005508DF00E5
:1036B0005408DE005308DD005208DC000A12031330
:1036C000CF220A1677080317DC007808DD00790896
:1036D000DE007A08DF00E3005E08E2005D08E1003A
:1036E0005C08E0008830E700F430E600B330E50025
:1036F0007F30E4000A1203132F2E0A16203083169F
:103700000317A500BC30A4003E30A3009630A200F1
:103710007A08A9007908A8007808A7007708A60009
:103720000A1283120313EC220A167A08831603176F
:10373000A5007908A4007808A3007708A2000A125F
:10374000831203130C260A167908031793007808CE
:1037500092001308E0001208DF000330E200E830B6
:10376000E1000A120313EC260A1678088316EF000C
:10377000831203171308E0001208DF000330E20091
:10378000E830E1000A120313EC260A167708031743
:10379000DC007A08DD00E0005C08DF00E201643054
:1037A000E1000A120313EC260A16780803179400A6
:1037B0001308E0001208DF000330E200E830E10007
:1037C0000A120313EC260A1677080317DC007A089E
:1037D000DD00E0005C08DF00E2016430E1000A1275
:1037E0000313EC260A1677080317DD007A08DE00BB
:1037F000E0005D08DF00E2010A30E1000A12031375
:10380000EC260A167808031795001308E000120842
:10381000DF000330E200E830E1000A120313EC2677
:103820000A1677080317DC007A08DD00E0005C0860
:10383000DF00E2016430E1000A120313EC260A16ED
:1038400077080317DD007A08DE00E0005D08DF007E
:10385000E2010A30E1000A120313EC260A16770887
:1038600003179600831603138814831288184C2CB0
:10387000831688148312881C382CA908031D432C36
:103880000130A9004C2C290B482C0230A9004C2CEB
:103890002908023C0319A901A908031D552C831608
:1038A00006128312061695016C2C290B602C8316C8
:1038B0000612831206127830950032309B006C2C71
:1038C0002908023C031D6C2C831606128312061273
:1038D000FF30950014309B002A18722C2A148A118C
:1038E000922D8A1532300317DD000A128A11031354
:0A38F000E8260A168A153F2A630035
:02400E003A3F37
:00000001FF
;PIC16F877A
;CRC=204F  CREATED="10-May-18 11:30"
